S019000048656C6C6F5F415453414D34535F4153462E7372656382
S214400000203700204D2B4000492B4000492B400014
S214400010492B4000492B4000492B4000000000007F
S214400020000000000000000000000000492B4000D7
S214400030492B400000000000492B4000492B40005F
S214400040492B4000492B4000492B4000492B40009B
S214400050492B4000492B4000492B4000492B40008B
S214400060492B4000492B400000000000950F4000FF
S214400070A90F4000BD0F4000492B4000492B4000CF
S2144000800000000000000000492B4000492B4000C3
S214400090492B4000492B4000492B4000492B40004B
S2144000A0492B4000492B4000492B4000492B40003B
S2144000B0492B4000492B4000492B4000492B40002B
S2144000C0492B4000492B40000918400010B5054C0C
S2144000D0237833B9044B13B10448AFF300800123AF
S2144000E0237010BDD004002000000000C82F400040
S2144000F0084B10B51BB108480849AFF300800848C4
S214400100036803B910BD074B002BFBD0BDE8104079
S214400110184700BF00000000C82F4000D40400204D
S214400120C82F400000000000024A1378013BDBB2B3
S21440013013707047800500200020704700207047ED
S2144001401D4B1B7813F0800F12D003F06003202B5A
S21440015028D1194B5B78212B26D1174BDB88072BF0
S21440016024D1154B154A9A6007229A810120704780
S21440017003F06003202B1BD10F4B5878202804D067
S214400180222814BF0020012070470B4BDB88072B2A
S21440019010D1094B0A4A1A61084A9A6007229A8186
S2144001A001207047002070470020704700207047AD
S2144001B0002070470020704708070020EC0400200D
S2144001C0C5014000704700BF08B50023104A1370B1
S2144001D0104A1380104AA12111702021517053807B
S2144001E093800221D18013810C4A4FF4E131116093
S2144001F01371537108239371094B9847024620B1F7
S21440020003490B780133DBB20B70104608BD00BFC4
S214400210800500202806002094050020EC040020DD
S214400220B92D4000424B1B7813F0FF0F7FD130B5FD
S21440023083B0404B984730B13F4B1C883F4B984764
S214400240844206D171E03C4B1C883D4B9847844223
S2144002506BD0EFF31085B5FA85F56D0972B6BFF32E
S2144002605F8F0022374B1A70374B1C78E4B2374BFF
S21440027033F81430DBB9364A1388013313802D4BDC
S214400280984718B9324B1B88632B07D9294B984798
S21440029068B12F4B1B88B3F5487F08D2002D44D059
S2144002A00122284B1A70BFF35F8F62B63DE00022F2
S2144002B0274B1A80274B1B7813F0FF0F05D1B4FA53
S2144002C084F35B09204A137002E0B4FA84F46409AC
S2144002D00122174B1A7025B11A4B1A70BFF35F8F65
S2144002E062B62546194B33F81440403C18BF0124EB
S2144002F064B1104B984720B1104B98470E4B18806E
S21440030007E00F4B98470C4B188002E000220A4B40
S2144003101A800E4B33F815300F4A00928120214642
S2144003200E4A02EB85120E4CA04703B030BD704714
S214400330900500202D24400088050020952440008C
S21440034085244000A0000020F4040020F80400208B
S214400350860500202406002065034000FC0400209B
S2144003603128400088B908B5084B1B7813F0FF0FBA
S2144003700CBF01220022064B23F81200054B1870D2
S214400380054B1870054B984708BD7047F40400208D
S214400390F804002024060020900500202502400096
S2144003A008B50020014B984708BD00BF2502400015
S2144003B008B5064A1378013BDBB213701378044B3A
S2144003C098470022034B1A7008BD00BFF304002074
S2144003D0C52D40008A050020EFF3108272B6BFF3A9
S2144003E05F8F00210A4B19700A4B188880B20A4B5F
S2144003F01B78DBB2094931F813309BB2181A2AB978
S2144004000122034B1A70BFF35F8F62B6704700BF7E
S214400410A0000020840500208C0500207C050020DC
S21440042008B5034B9847003018BF012008BD00BFF1
S214400430D903400010B582B0EFF31083B3FA83F3CC
S2144004405B0972B6BFF35F8F00211F4A11701F4AC7
S2144004501278D4B21E4A127812F0FF0F08D11D4A05
S214400460118889B21C4A32F8142092B2914208D2BE
S21440047033B30122144B1A70BFF35F8F62B600206D
S2144004801FE00021134A1180B4FA84F252090F4942
S2144004900A7001210E4A117023B10B4B1970BFF33D
S2144004A05F8F62B600200D4B98470D4B009302209D
S2144004B001210C4A02EB841240230B4CA04700E07B
S2144004C0002002B010BD00BFA00000208C05002018
S2144004D020060020840500207C05002021044000E2
S2144004E07D054000A00500203128400010B50024BE
S2144004F0154B1C70154B1C70154B1C70154B1C7007
S214400500154B1C805C80154B1C802046144B98472E
S214400510144B1C70144B1C70144B1C805C80144B8A
S2144005201C802046134B9847014658B1064A13781C
S2144005300133DBB213701378DBB2012B02D10122F8
S2144005400D4B1A70084610BDF3040020900500209D
S21440055024060020F4040020F8040020880500202B
S21440056025024000200600208C0500207C05002047
S21440057084050020350440008A050020F8B910B5EF
S21440058082B00F4B1B7813F0FF0F0CBF01230023E4
S21440059051B90C490091104601210B4A02EB8312D7
S2144005A040230A4CA04708E089B2094A22F81310B3
S2144005B00020084B1870084B984702B010BD704793
S2144005C08C0500207D054000A00500203128400015
S2144005D07C05002020060020350440002DE9F04729
S2144005E0224B93F80680B8F1090F14BF4FF000086D
S2144005F04FF001084FF0000A1D4CD14657461D4D9E
S2144006001D4EEFF3108072B6BFF35F8F27702B88B6
S2144006109BB23278D2B2194931F8121089B220B959
S21440062001202070BFF35F8F62B68B4207D3144B16
S2144006301B7813F0FF0FE4D10020BDE8F08703EBF2
S21440064082121049885C4AEA000A01339BB22B802A
S21440065048460D4B9847B8F1000F03D04FEA0A2A98
S214400660C846CEE75046BDE8F08700BFEC04002001
S214400670A0000020840500208C0500207C0500207A
S2144006808A050020A00500203504400008B500205B
S214400690014B984708BD00BFDD054000EFF31082D0
S2144006A072B6BFF35F8F0021134B1970134B1B7844
S2144006B0DBB2134931F81300402812D111490978AA
S2144006C011F0FF0F0DD11049097811F0FF0F08D136
S2144006D001200D490870B3FA83F35B0907490B7094
S2144006E00020C0F140002AB90122034B1A70BFF324
S2144006F05F8F62B6704700BFA0000020F404002061
S214400700F8040020900500202406002008B5034B7E
S2144007109847003018BF012008BD00BF9D06400026
S2144007202DE9F0410C461B4B9D79092D14BF002541
S2144007300125194E194FDFF874800020B04730B9B4
S214400740174B1B7813F0FF0FF7D1BDE8F081EFF39E
S214400750108172B6BFF35F8F00233B7098F800306D
S214400760DBB2104830F8132002F1010E20F813E0F7
S21440077002EB83130C4AD45421B901233B70BFF3D8
S2144007805F8F62B615B124120025D6E70120BDE87A
S214400790F08100BFEC0400200D074000A0000020C0
S2144007A08A050020F8040020FC040020F404002001
S2144007B008B501460020014B984708BD2107400078
S2144007C00F4B1B681A6853881A44037818449042A3
S2144007D010D24378042B0FD08B4205D17047437814
S2144007E0042B0BD08B420AD0037818449042F6D3A1
S2144007F00020704700207047002070470020704758
S2144008002C06002008B5034B987800F07F00024B7A
S214400810984708BD0807002031244000164B1B7837
S2144008200BB3164B1B681B681A7982421DD910B44D
S214400830134A13605C881C44A34218D25A78042A90
S21440084009D19A78824206D1DA788A4203D10C4A94
S214400850136001200CE01A781344A342EED3084AF2
S2144008601360002004E000207047002070470020FE
S2144008705DF8044B704700BF380600202C06002069
S2144008803C0600202DE9F84304460021124B9847C9
S2144008908046E8B1114B1B685B6853F82490D9F842
S2144008A00C309847014620460B4B9847804678B117
S2144008B00B4B1C6805260B4D0B4F20463146A84770
S2144008C0044610B18078B847F7E7D9F8043098471F
S2144008D04046BDE8F88300BF1D0840002C060020B7
S2144008E03C060020C1074000AD2540002DE9F04100
S2144008F08046104B98470346C8B10F4B1C680526E8
S2144009000E4D0F4F20463146A847044638B18078F2
S214400910E178A288B84703460028F3D107E0094BA0
S2144009201B685B6853F828301B6898470346184690
S214400930BDE8F0811D0840003C060020C10740008D
S214400940A52440002C06002008B5014B984708BD5A
S2144009506923400070B50D4B1B7883B10C4B1B6868
S2144009601B681B795BB100240A4E094D2046B047F0
S2144009700134E4B22B681B681B79A342F6D80022E8
S214400980024B1A700122044B1A8070BD38060020B4
S2144009902C060020850840003606002038B50C4B53
S2144009A01B789BB10B4B1B681A68127972B10024F6
S2144009B0084D5B6853F824301B6903B198470134EF
S2144009C0E4B22B681A681279A242F2D838BD00BF4A
S2144009D0380600202C060020F8B5904B00229A815D
S2144009E01A615A611B7813F0800F00F0D2818B4A4F
S2144009F0D288002A40F0D181C7E113F01F0365D1A9
S214400A008649497806290BD0082957D000295DD158
S214400A10022A40F06A8182480221824B9847C0E110
S214400A207E4B5A88130A013B0E2B00F25581DFE8B5
S214400A3013F00F00160034005301530153015301C5
S214400A4053015301530153015301530153012A00EB
S214400A50754B1B6818461978724B984725E0D2B2FA
S214400A60714B1B685B7C934240F23F816E4B5B68E8
S214400A7053F83230184659886A4B9847674B9B68FC
S214400A8002225A7011E0684B9B68002B00F02D81C3
S214400A9018465988634B984707E012F0FF0F40F01E
S214400AA02481624804215F4B98475C4BDA889B89D7
S214400AB0934240F27681594B9A8172E1012A40F086
S214400AC014815B480121574B98476AE1012B27D197
S214400AD0524949780A2923D1012A40F00681544BCD
S214400AE01B78002B00F001814C4B1C79514B1D6844
S214400AF02B681B79A34240F2F880204600214E4BDB
S214400B009847002800F0F1806B6853F82430DB6883
S214400B1098474A4B187018460121424B984740E187
S214400B20022B40F0E2803D4B5B78002B40F0D680B5
S214400B30022A40F0DA80394B1879414B9847414BAE
S214400B40188018460221374B98472AE113F01F03B6
S214400B5040F08280314A5278013A082A7CD8DFE851
S214400B6012F012007B00BF007B0009007B007B0078
S214400B707B002200294BDB88002B40F0B680324AAF
S214400B80264B1A610DE1254BDB88002B40F0AD80EB
S214400B90224B5B88012B40F0A880214A138823F023
S214400BA002031380FDE01D4BDB88002B40F09D8048
S214400BB0264B9847002800F09880184B9A781A4B96
S214400BC01B685B7C9A4200F39080214B9847134BFE
S214400BD09B78174A1370002B00F0E38003F1005314
S214400BE0013B114A526802EBC3001249086052F8B2
S214400BF033301B79002B00F0D48000242646154D58
S214400C000F4620463146A84700286ED00134E4B24D
S214400C103B681B681B79A342F3D8C2E00807002054
S214400C203606002099244000280000209C00002022
S214400C30380600202C0600201D0840003406002000
S214400C401526400030060020050840006924400074
S214400C5055094000ED084000012B19D1524A527800
S214400C600B2A15D1504BDB88002B3ED14F4B1B78BF
S214400C70002B3AD04C4B1C795D8820464C4B98470D
S214400C80002832D02046E9B24A4B984703462AE02D
S214400C90022B2AD1444B5B78012B02D0032B0CD07D
S214400CA020E0414BDB8803BB3F4B5B88EBB93E4BB8
S214400CB01879414B9847034615E03B4BDB88A3B970
S214400CC0394B5B888BB9384C20793C4B9847207918
S214400CD03B4B9847034606E0002304E0002302E02F
S214400CE0002300E00023002B5CD12F4B1B7803F041
S214400CF01F03012B1ED12D4B1B78DBB12A4B1C79D1
S214400D00304B1D682B681B79A34213D9204600211F
S214400D102D4B984770B16B6853F82450EB68984752
S214400D2001462046284B984720B1AB689847034673
S214400D30002837D11C4B1B7803F01F03022B26D10B
S214400D401A4B1B78EBB11F4B1A6813681B79D3B14B
S214400D5000241D4E1B4F536853F82450EB689847A9
S214400D6001462046B0470346E0B1AB689847034685
S214400D70C0B90134E4B23A6811680979A142EAD8A8
S214400D8010E000230EE000230CE000230AE00023DE
S214400D9008E013F0600FA8D1D8E613F0600FA4D196
S214400DA02BE601231846F8BD080700203806002029
S214400DB085084000ED08400041274000A529400036
S214400DC0552640002C0600201D08400010B5002087
S214400DD03E210A4B98470A4CA0470028FCD0094BB6
S214400DE09847094A094BDA62094CA0470028FCD0CC
S214400DF00120084B9847084B984710BD39104000D3
S214400E008D104000BD104000023F0F0000040E4011
S214400E10C9104000811140009511400010B50E48A1
S214400E200E4B984700203E210D4B98470D4CA0474F
S214400E300028FCD00C4B98470C4A0D4B9A620D4C40
S214400E40A0470028FCD010200B4B98470B4B9847E8
S214400E500148024B984710BD000E2707112D400051
S214400E60391040008D1040009D104000013F132077
S214400E7000040E40AD104000D10F4000FD2B400056
S214400E8010B52348234B98470B20234CA0470C20F3
S214400E90A0470D20A04721494FF400030B630B6188
S214400EA0C1F8A0301E4B04225A61C3F8A0205A66EF
S214400EB0C3F890205A655A62C3F88020186F20F015
S214400EC004001867586F20F0040058674FF48010ED
S214400ED008630861C1F8A0004FF4803018631861B9
S214400EE0C3F8A0004FF4800008630861C1F8A00072
S214400EF05A66C3F890205A655A62C3F880201A6F23
S214400F0022F004021A675A6F22F004025A6710BD94
S214400F1050140E40412B4000D910400000120E40A5
S214400F20000E0E40C06C7047806C70472DE9F84349
S214400F3081468846124B984705464846114B984787
S214400F40054013D0104C04F160062368434508D191
S214400F506168294205D0E36840469847636825EAB9
S214400F600305B44202D01034002DEED1074B1B6867
S214400F7023B1074B1B680BB148469847BDE8F8833A
S214400F80250F4000290F400044060020040700209B
S214400F904006002008B502480B21024B984708BD82
S214400FA0000E0E402D0F400008B502480C21024BA3
S214400FB0984708BD00100E402D0F400008B5024867
S214400FC00D21024B984708BD00120E402D0F4000E1
S214400FD0184A136B23F0700318431063936E13F094
S214400FE0080F03D009E0013B03D11EE04FF4006335
S214400FF010498A6E12F0080FF5D00E4A136B23F094
S214401000030343F002031363906E10F0080004D00D
S21440101000207047013B03D109E04FF400630549C7
S2144010208A6E12F0080FF5D07047012070470120F5
S214401030704700BF00040E4038B111490B6A114A90
S2144010401A40114B13430B6270470D4A136A23F440
S2144010505C1323F0030343F45C1343F001030902DB
S21440106089B20B431362936E13F0010FFBD0044A10
S214401070136A43F09B7343F480331362704700BF98
S21440108000040E40FCFFC8FE02003701024B986E7B
S21440109000F48030704700BF00040E404FF000520E
S2144010A0014B9A62704700BF00040E40024B986E98
S2144010B000F00200704700BF00040E400022014BC3
S2144010C0DA62704700040E40024B986E00F004004F
S2144010D0704700BF00040E4022281ED81F280CD898
S2144010E0114B9A69012383401A40934217D001233B
S2144010F083400D4A1361002070470B4BD3F80821FC
S2144011002038012383401A4093420AD0012383406B
S214401110054AC2F800310020704701207047002081
S21440112070470020704700BF00040E4022281ED89B
S2144011301F280CD8114B9A69012383401A409342CA
S21440114017D1012383400D4A5361002070470B4B53
S214401150D3F808212038012383401A4093420AD10D
S21440116001238340054AC2F804310020704701201D
S2144011707047002070470020704700BF00040E40B4
S214401180000200F4706040F00100014B9863704725
S21440119000040E408022014B1A60704700040E4047
S2144011A0034A136FC0F3120003431367704700BF30
S2144011B000040E40024B187880F00100704700BFD4
S2144011C0B4060020034A0023136153619381024A08
S2144011D01370704708070020F806002082B00522EA
S2144011E00E4B1A700E4A136B0093009B43F04F034E
S2144011F00093009B43F020030093009B136300235F
S2144012000193019B132B06D800BF019B013301932A
S214401210019B132BF8D902B0704700BFF806002098
S2144012200040034082B003220E4B1A700E4A136BE6
S2144012300093009B43F04F030093009B43F0100342
S2144012400093009B136300230193019B132B06D846
S21440125000BF019B01330193019B132BF8D902B0C9
S214401260704700BFF80600200040034008B5024B18
S2144012701B6903B1984708BD0807002030B58BB0FE
S214401280754B1B78032B1DD1744A136B0093009B40
S21440129043F04F030093009B23F001030093009B11
S2144012A0136300230193019B132B06D800BF019BB9
S2144012B001330193019B132BF8D9694B9847694B2F
S2144012C09847C6E0684B1A88684B9C89A41AA4B213
S2144012D0002C33D166490B8813449BB20B80634A7B
S2144012E0D2889A4202D0634B1B78EBB104225A4B09
S2144012F01A705A4A136B0293029B43F04F030293B1
S214401300029B23F001030293029B13630023039383
S214401310039B132B00F29D8000BF039B0133039376
S214401320039B132BF8D994E0504B5B696BB19847FD
S21440133058B100224C4B1A804C4B9C893F2C04D908
S21440134000224C4B1A70402402E00122494B1A708E
S214401350464B9968444B1B88EFF31080B0FA80F0F8
S214401360400972B6BFF35F8F0025434A15703B4A6B
S214401370126B12F0020F01D124BB2DE028B10122DE
S2144013803D4B1A70BFF35F8F62B60422324B1A7021
S214401390324A136B0493049B43F04F030493049B1D
S2144013A023F001030493049B136300230593059BDA
S2144013B0132B4ED800BF059B01330593059B132B7B
S2144013C0F8D946E019440A46244D12F8013B2B65ED
S2144013D0531ADBB2A342F8D3234A13881C44148022
S2144013E01E4A136B0693069B43F04F030693069BD9
S2144013F043F010030693069B136300230793079B53
S214401400132B06D800BF079B01330793079B132B6C
S214401410F8D9124A136B0893089B43F04F0308937E
S214401420089B23F001030893089B1363002309934A
S214401430099B132B06D800BF099B01330993099BD0
S214401440132BF8D928B101220B4B1A70BFF35F8FCC
S21440145062B60BB030BD00BFF80600200040034027
S2144014606D124000C5114000F60600200807002017
S214401470B6060020B5060020A000002038B503467A
S214401480447C14F0100F15D0447C6FF3041444745D
S21440149005687DB102F10C04074850F8240010F4AA
S2144014A0806F18BF42F08002012914BF002001203F
S2144014B09968A84738BD00BF0040034030B484B0A8
S2144014C0421E830003F1402303F54033196B1C6B27
S2144014D011F0020F0CD014F0400F13D102EB820132
S2144014E0324C04EB81014C7C6FF383044C7409E06E
S2144014F002EB82012D4C04EB81014C7C012565F307
S21440150083044C7402EB8201284C04EB8101497C35
S21440151011F00C0F25D1196B0091009941F04F0145
S2144015200091009921F0020100910099196300236F
S2144015300193019B132B06D800BF019B01330193F7
S214401540019B132BF8D968B303282BD002EB8202F9
S214401550164B03EB82035A7C012161F383025A74D3
S21440156020E0196B0291029941F04F0102910299D5
S21440157021F0400102910299196300230393039BD3
S214401580132B06D800BF039B01330393039B132BF7
S214401590F8D902EB8202054B03EB8202537C6FF3D1
S2144015A08303537404B030BC704700BFB8060020B5
S2144015B02DE9F04383B08646461E06EB86026C4B0A
S2144015C003EB820393F81180C8F3810820B1032807
S2144015D00CBF0123022300E00123434540F3BE80B5
S2144015E006EB8603624A02EB8303DA689B689A42FC
S2144015F009D306EB86045E4D05EB8404647C14F048
S214401600400F00F0AD8006EB8607594C04EB870789
S2144016107C6814449D1A3B8AC3F30907BD423ABF0F
S2144016202F464FF0010C4FF0000C06EB8603504D52
S21440163005EB83033A44DA60072F33D904F10803F5
S2144016403D46820002F1402202F5403213F8089CE3
S214401650C2F8509013F8079CC2F8509013F8069CB6
S214401660C2F8509013F8059CC2F8509013F8049CAA
S214401670C2F8509013F8039CC2F8509013F8029C9E
S214401680C2F8509013F8019CC2F85090083D0833B9
S214401690072DDBD8A7F1080323F0070308331C44C3
S2144016A007F007074FB1E319324F14F8015B0EF10C
S2144016B0140247F822509C42F7D106EB86032C4A88
S2144016C002EB830308F101085A7C68F383025A74DC
S2144016D0E1B1800000F1402000F54030036B0093FC
S2144016E0009B43F04F030093009B43F0100300938E
S2144016F0009B036300230193019B132B06D800BF76
S214401700019B01330193019B132BF8D9BCF1000FC9
S21440171008D006EB8603164A02EB83035A7C6FF327
S21440172086125A7406EB8603114A02EB8303DA6884
S2144017309B689A4216D306EB86030D4A02EB830358
S2144017405B7C13F0400F0FD106EB860602EB860655
S214401750737C43F080037374002006E0012004E0AD
S214401760002002E0012000E0012003B0BDE8F08345
S214401770B80600200040034010B40446002835D187
S2144017801E4B1B787BB31E4B9B7803B9FEE7EFF3EB
S214401790108372B6BFF35F8F00211A4A1170184942
S2144017A08A78013A8A70F3B90122164B1A70BFF351
S2144017B05F8F62B617E0124B9B78FF2B00D1FEE797
S2144017C0EFF3108372B6BFF35F8F00210D4A11709E
S2144017D00B498A7801328A702BB90122094B1A705C
S2144017E0BFF35F8F62B6054B1C7004E0034B1B785B
S2144017F0002BF8D1DFE75DF8044B7047F406002075
S214401800FC060020A00000202DE9F04FB1B0954B1B
S214401810984760B9944BDB6913F4807F07D172B662
S214401820BFF35F8F0022914B1A7000F054BD222008
S2144018308F4B98478C4B9B6913F4006F0CD08A4BA8
S214401840DB6913F4006F07D04FF40062864B1A62D0
S214401850884B984700F03FBD834BDB6913F0010F80
S21440186000F0F281804B1B6B13F0040F00F0C08039
S214401870814B1B781BB1814B9847814B98477A4BDD
S2144018801B6BC3F30A43082B1CD0774A136B029397
S214401890029B43F04F030293029B23F00403029300
S2144018A0029B136300230393039B132B06D800BFAE
S2144018B0039B01330393039B132BF8D9714B984733
S2144018C000F009BD704B03F1080067490A6D03F844
S2144018D0012F8342FAD16D4B9847E0B9624A136BA9
S2144018E00493049B43F04F030493049B23F00403A8
S2144018F00493049B136300230593059B132B06D880
S21440190000BF059B01330593059B132BF8D95D4B10
S214401910984700F0E0BC5E4B93F90030002B3DDA70
S214401920514A136B0693069B43F04F030693069B60
S21440193043F080030693069B136300230793079B9D
S214401940132B06D800BF079B01330793079B132B27
S214401950F8D9454A136B0893089B43F04F03089306
S214401960089B23F004030893089B13630023099302
S214401970099B132B06D800BF099B01330993099B8B
S214401980132BF8D90023434A1380434A138002227C
S214401990394B1A70414B984700F09DBC324A136B46
S2144019A00A930A9B43F04F030A930A9B23F00403CF
S2144019B00A930A9B136300230B930B9B132B06D8A7
S2144019C000BF0B9B01330B930B9B132BF8D9304B6B
S2144019D0DB881BB9324B984700F07DBC00232D4A6C
S2144019E013802D4A13800122234B1A7000F073BCDB
S2144019F01D4B1B6B13F0010F03D0284B984700F08C
S214401A006ABC194B1B6B13F0020F00F018811A4B7F
S214401A101B78012B46D0022B01D0042B02D1174B4A
S214401A20984701E0174B98470F4A136B0C930C9B53
S214401A3043F04F030C930C9B23F002030C930C9B38
S214401A40136300230D930D9B132B06D800BF0D9BED
S214401A5001330D930D9B132BF8D9094B984700F093
S214401A603ABC00BFB511400000400340A000002033
S214401A70D91040009D094000F80600206D12400035
S214401A80C5114000DD11400007070020D90940007D
S214401A9008070020B6060020F60600207D1240000B
S214401AA025124000924B196BC1F30A41914B9B891A
S214401AB0914A15886A189342AEBF89B25B1B99B2A9
S214401AC08C4B98682844A9B10246894C236D02F88D
S214401AD0013B131ADBB28B42F8D30D44ADB2864BB2
S214401AE01D80402906D1834BDA88844B1B882B44C3
S214401AF09A423EDC7F4B9D815B69F3B19847E0B9E3
S214401B007F4B98477A4A136B0E930E9B43F04F03D6
S214401B100E930E9B23F002030E930E9B136300233B
S214401B200F930F9B132B00F2D68300BF0F9B0133FE
S214401B300F930F9B132BF8D9CDE36D4A136B10937D
S214401B40109B43F04F031093109B23F00203109317
S214401B50109B136300231193119B132B06D800BFD1
S214401B60119B01331193119B132BF8D9654B984762
S214401B70B1E3604B9B89AB4246D15E4B5B69E3B9B0
S214401B805F4B98475A4A136B1293129B43F04F038E
S214401B901293129B23F002031293129B13630023AB
S214401BA01393139B132B00F2968300BF139B0133B2
S214401BB01393139B132BF8D98DE39847E0B9504BFA
S214401BC098474B4A136B1493149B43F04F0314935C
S214401BD0149B23F002031493149B13630023159362
S214401BE0159B132B00F2778300BF159B013315938B
S214401BF0159B132BF8D96EE340493F4A10880B8853
S214401C0003440B8000231380394A136B1693169BAC
S214401C1043F04F031693169B23F002031693169B2E
S214401C20136300231793179B132B00F2548300BFB4
S214401C30179B01331793179B132BF8D94BE32C4B69
S214401C401B6B13F0080F06D12F4F39460123DFF8E0
S214401C50A0E018461AE0264A136B0093009B43F018
S214401C604F030093009B23F008030093009B1363ED
S214401C7000230193019B132B00F22D8300BF019B91
S214401C8001330193019B132BF8D924E3DEB2DEF82F
S214401C9018201D4600FA03F4144200F0208203F197
S214401CA0FF3889469A0002F1402202F54032D2F8C7
S214401CB030C01CF0420F52D008EB8803124A02EBA9
S214401CC083039A68D968B3F810A0CAF3090A5B6818
S214401CD0AD0005F1402505F540352F6BC7F30A47A3
S214401CE0002F00F0ED82501AB84240F2DD82CCE27E
S214401CF00040034008070020F6060020B6060020F5
S214401D00DD11400025124000B80600204FF0010BC0
S214401D1019440B462A6D03F8012B5A1A9042F9D8FB
S214401D203046A54B9847BBF1000F02D1BA4540F26A
S214401D30D2822B6B13F0200F40F0CD829F4B5C611C
S214401D409F4B4FEA880202EB080103EB8101CB6808
S214401D508B604846002132469A4B9847BBE2D2F801
S214401D6030C01CF0010F00F0908108EB8802944BC5
S214401D7003EB8202537CC3F38101033161F3830397
S214401D805374537C13F0200F78D013F00C0F36D0DA
S214401D90AA0002F1402202F54032136B1893189BBA
S214401DA043F04F031893189B43F010031893189B67
S214401DB0136300231993199B132B06D800BF199B56
S214401DC001331993199B132BF8D9136B1A931A9B4B
S214401DD043F04F031A931A9B23F001031A931A9B5E
S214401DE0136300231B931B9B132B00F2748200BFCC
S214401DF01B9B01331B931B9B132BF8D96BE2AA004A
S214401E0002F1402202F54032136B1C931C9B43F0B8
S214401E104F031C931C9B23F001031C931C9B1363D2
S214401E2000231D931D9B132B06D800BF1D9B01331B
S214401E301D931D9B132BF8D9136B1E931E9B43F0CB
S214401E404F031E931E9B43F020031E931E9B13635B
S214401E5000231F931F9B132B06D800BF1F9B0133E5
S214401E601F931F9B132BF8D908EB8808544B03EBA2
S214401E7088035A7C6FF345125A742CE213F0800F95
S214401E800FD008EB88024E4B03EB8203597C6FF36E
S214401E90C7115974DA689A60484600213246494B61
S214401EA0984708EB8803464A02EB8303DA689B6848
S214401EB09A4238D308EB8802414B03EB82035B7CA3
S214401EC013F04C0F2FD1EFF3108372B6BFF35F8F32
S214401ED000213D4A1170394A54612BB901223A4BD0
S214401EE01A70BFF35F8F62B6AB0003F1402303F571
S214401EF040331A6B2092209A42F04F022092209A4A
S214401F0022F001022092209A1A6300232193219BFB
S214401F10132B00F2E08100BF219B01332193219BCC
S214401F20132BF8D9D7E1002E00F08C80032E00F05A
S214401F30898008EB8802224B03EB82035B7C13F01C
S214401F400C0F45D0AA0002F1402202F54032136B36
S214401F502293229B43F04F032293229B43F010038D
S214401F602293229B136300232393239B132B06D891
S214401F7000BF239B01332393239B132BF8D9136B6A
S214401F802493249B43F04F032493249B23F0010384
S214401F902493249B136300232593259B132B06D859
S214401FA000BF259B01332593259B132BF8D930463C
S214401FB00021064B98478EE1BD1440000040034088
S214401FC0B80600207D144000A0000020B115400057
S214401FD030460121694B984790B91423684A03FB61
S214401FE0082898F811206FF3C71288F81120D8F8FF
S214401FF00C30C8F80830484600213246614B9847B6
S214402000AB0003F1402303F540331A6B2692269A21
S21440201042F04F022692269A22F001022692269AF3
S2144020201A6300232793279B132B06D800BF279BB2
S21440203001332793279B132BF8D9304600214F4B6B
S214402040984748E1304601214C4B9847AB0003F196
S214402050402303F540331A6B2892289A42F04F02E9
S2144020602892289A22F001022892289A1A6300237E
S2144020702993299B132B00F22E8100BF299B013305
S2144020802993299B132BF8D925E1126B12F0080FE0
S21440209025D09B0003F1402303F540331A6B2A9268
S2144020A02A9A42F04F022A922A9A22F008022A924C
S2144020B02A9A1A6300222B922B9A132A06D800BF1C
S2144020C02B9A01322B922B9A132AF8D91A6B02F4C8
S2144020D0E062B2F5807F00F0FE801B6BFBE00133D0
S2144020E01431042B7FF4D2ADEEE0274BDB6913F4BA
S2144020F0005F13D1244B9B6913F4007F04D0224B1E
S214402100DB6913F4007F09D11F4B9B6913F4806F82
S21440211014D01D4BDB6913F4806F0FD01A4C4FF46C
S2144021201853236263610120184B98474FF480731D
S214402130236223614FF400632361CCE0124B9B691A
S21440214013F4807F26D0104BDB6913F4807F21D0B8
S2144021500D4B4FF480721A625A614FF400521A6166
S2144021604FF400721A614FF480621A612220084BC5
S21440217098470020054B9847ADE000BFB11540009A
S214402180B80600207D144000004003407917400008
S2144021902D114000514BDB6913F4805F00F09B80AB
S2144021A04FF480524D4B1A62002401264C4D0134A8
S2144021B0E4B2384631462246A8471437032CF6D1B7
S2144021C0484B9847454B5A6822F001025A605A6875
S2144021D022F002025A609A6842F480729A609A68C4
S2144021E022F07F029A601A6B2C922C9A42F04F0291
S2144021F02C922C9A22F4074222F080022C922C9A9F
S21440220042F400422C922C9A1A6300232D932D9B65
S214402210132B06D800BF2D9B01332D932D9B132BDC
S214402220F8D92E4A136B2E932E9B43F04F032E93D2
S2144022302E9B43F400432E932E9B136300232F9331
S2144022402F9B132B06D800BF2F9B01332F932F9B1A
S214402250132BF8D9EFF3108372B6BFF35F8F0021CC
S214402260214A117001211D4A116123B91E4B197074
S214402270BFF35F8F62B61D4B9847184B4FF4807282
S2144022801A614FF400621A6125E008EB8800184A8C
S21440229002EB80027818D06038464FF0000B37E5E6
S2144022A03046144B984744E508EB880CDFF840E08E
S2144022B00EEB8C0ECEF80C2000287FF427ADEFE70F
S2144022C030460C4B984731E5044B9B6913F4005F4E
S2144022D07FF40BAF0EE731B0BDE8F08F004003400F
S2144022E07D14400055094000A0000020C511400064
S2144022F0B8060020BD14400010B5EFF3108472B647
S214402300BFF35F8F0022144B1A700120134B98477F
S2144023102220134B9847134B5A6F22F480725A6709
S2144023205A6F42F400725A674FF480721A614FF443
S21440233000521A614FF400721A614FF480621A61BB
S2144023404FF400621A612CB90122034B1A70BFF396
S2144023505F8F62B610BD00BFA00000207917400016
S214402360D91040000040034038B5EFF3108572B6F0
S214402370BFF35F8F0024244B1C702220234B9847CA
S214402380234B9847234B502283F8222304225A603B
S214402390234621489A00D11800EB8101497C1A4413
S2144023A000EB820201F083016FF3C71151740133D1
S2144023B0032BEFD14FF48020184B98470022184B40
S2144023C01A70184B1B78FF2B00D1FEE7EFF31083F3
S2144023D072B6BFF35F8F00210B4A117011490A781D
S2144023E001320A702BB90122074B1A70BFF35F8F78
S2144023F062B60D4B98472DB90122034B1A70BFF3B6
S2144024005F8F62B638BD00BFA0000020D9104000E4
S214402410CD0D400000E100E0B8060020A1114000CC
S214402420F4060020FC060020F922400000207047F9
S2144024300C4B5A6822F001025A609A6822F4807265
S2144024409A6070B19A6800F07F0022F07F021043D5
S21440245098609A6842F480729A605A6842F0010224
S2144024605A60704700400340054B5B6813F0010F0D
S2144024701DBF034B986800F07F000020704700BFE8
S21440248000400340024B1868C0F30A00704700BF84
S2144024900040034000207047014B98609981704788
S2144024A008070020F0B583B000F00F04032C6CD86A
S2144024B0A30003F1402303F540331D6B15F4004F92
S2144024C065D101F00305012D03D1002C61D0032C0A
S2144024D061D0251FEDB2022D34BF4FF40075402564
S2144024E095425ADB661E06EB86072E4D05EB8705A2
S2144024F005F11007B5F810E062F3090EA5F810E0F4
S2144025006A7C02F07F026FF345126A74C00903D0FA
S2144025107A786FF383027A70234A966A012505FA21
S21440252004F444EA06059562956A25EA0404946232
S2144025301A6B0092009A42F04F020092009A22F4E0
S214402540074222F08002009238B141F004021202A3
S21440255002F4E06242F4004204E00A0202F4E0625E
S21440256042F4004200990A430092009A1A630023FC
S2144025700193019B132B12D800BF019B013301939B
S214402580019B132BF8D901200AE0002008E0002028
S21440259006E0002004E0002002E0002000E00120E9
S2144025A003B0F0BDB80600200040034000F00F0224
S2144025B0032A2AD800B583B0930003F1402303F5DD
S2144025C04033196B0091009941F04F0100910099FA
S2144025D021F4004100910099196300230193019B67
S2144025E0132B06D800BF019B01330193019B132B8D
S2144025F0F8D9501E00EB8000044B03EB800001210D
S214402600034B984703B05DF804FB7047B8060020BC
S2144026107D14400000F00F00032815D8431E03EB3E
S21440262083030A4A02EB83035B7C13F0200F09D135
S2144026300C30074B53F8203013F0280F14BF0120FE
S214402640002070470120704700207047B8060020E1
S2144026500040034000F00F01032961D810B483B056
S214402660EFF31082B2FA82F2520972B6BFF35F8F6E
S2144026700024304B1C7010F0800F28D04B1E01F108
S2144026800C002D4C54F8200010F0100F09D103EB2D
S21440269083002A4C04EB8000407CC0F38100012874
S2144026A015DD03EB8300254B03EB8003587C40F09D
S2144026B02000587401238B401F490B61002A31D0FB
S2144026C001201C4B1870BFF35F8F62B62DE08B0065
S2144026D003F1402303F54033186B0090009840F018
S2144026E04F000090009840F020000090009818633B
S2144026F000230193019B132B06D800BF019B013397
S2144027000193019B132BF8D901238B400A490B6197
S21440271052B10120074B1870BFF35F8F62B604E0DA
S21440272000207047012000E0012003B05DF8044B14
S214402730704700BFA000002000400340B8060020BD
S21440274000F00F00032867D8411E01EB8102364B8C
S21440275003EB82035A7C6FF345125A74820002F1EF
S214402760402202F54032136B13F0200F56D030B59E
S21440277085B0136B0093009B43F04F030093009B80
S21440278023F020030093009B136300230193019BD7
S214402790132B06D800BF019B01330193019B132BDB
S2144027A0F8D9224B9D6A012404FA00F040EA050459
S2144027B09C629C6A24EA00009862136B0293029B18
S2144027C043F04F030293029B23F008030293029BBD
S2144027D0136300230393039B132B06D800BF039B6E
S2144027E001330393039B132BF8D901EB81030E4A65
S2144027F002EB83035B7C13F0100F11D08800431864
S21440280002EB83035C7C6FF304145C74014452F85F
S21440281021309847012004E000207047012070478F
S214402820012005B030BD00BFB80600200040034080
S214402830F8B500F00F05032D00F29F80AC0004F1C0
S214402840402404F54034266B16F4004F00F0978081
S2144028506E1E06EB860E4F4F07EB8E077F7C17F0FB
S214402860200F40F08E80276B17F0200F40F08B80B3
S214402870EFF31087B7FA87F77F0972B6BFF35F8F1B
S2144028804FF0000CDFF810E18EF800C006EB860E25
S214402890DFF800C10CEB8E0E9EF811E01EF0100F14
S2144028A009D0002F71D001223B4B1A70BFF35F8FC7
S2144028B062B60020F8BD06EB860EDFF8D8C00CEBFB
S2144028C08E0E9EF811C04CF0100C8EF811C03FB121
S2144028D04FF0010E304F87F800E0BFF35F8F62B6CF
S2144028E0DFF8B0C006EB8607BF000CEB070ECEF84D
S2144028F004200EF10802CEF808304FF0000EC2F861
S21440290004E0069A4CF8072019B9B3FA83F35B093A
S21440291000E001231F49B700BA1901EB8202527C3E
S21440292063F386123E4401EB860613466FF3C713E5
S2144029307374EFF3108672B6BFF35F8F0022164BA8
S2144029401A700123AB40154A136110F0800F0CD06B
S214402950236B13F0110F08D128460121104B9847DE
S21440296018B1284600210E4B984786B901200A4BDD
S2144029701870BFF35F8F62B6F8BD0020F8BD002028
S214402980F8BD0020F8BD0020F8BD0020F8BD0120AD
S214402990F8BD00BFB8060020A0000020004003405D
S2144029A0B1154000F0B589B000F00F04032C00F2DA
S2144029B0BA80EFF3108372B6BFF35F8F00215B4A95
S2144029C011700125A5405A4A55612BB90122574B33
S2144029D01A70BFF35F8F62B610F0800F0AD1A60060
S2144029E006F1402606F54036336B13F0420F40F0B2
S2144029F0818086E0A20002F1402202F54032136B4D
S214402A0013F0100F53D0002C39D0032C37D0136B53
S214402A100093009B43F04F030093009B23F010036A
S214402A200093009B136300230193019B132B06D84E
S214402A3000BF019B01330193019B132BF8D9136B05
S214402A4013F0100FFBD1136B0293029B43F04F031E
S214402A500293029B43F010030293029B13630023EE
S214402A600393039B132B06D800BF039B01330393AA
S214402A70039B132BF8D9136B13F0100FFBD0136B7B
S214402A800493049B43F04F030493049B23F01003EA
S214402A900493049B136300230593059B132B06D8CE
S214402AA000BF059B01330593059B132BF8D9136B89
S214402AB00693069B43F04F030693069B23F00103C1
S214402AC00693069B136300230793079B132B06D896
S214402AD000BF079B01330793079B132BF8D9631E50
S214402AE003EB8302134B03EB82035A7C6FF38302A0
S214402AF05A7406E0104F2046B847336B13F0420F27
S214402B00F9D10B4B9A6A2A439A629A6A22EA0505D9
S214402B109D62601E00EB8000064B03EB80000121A7
S214402B202246064B984709B0F0BD00BFA0000020E3
S214402B3000400340B8060020BD1440007D1440000D
S214402B404FF4004343607047FEE700BF08B5204B94
S214402B50204A9A4213D9204B1D4A9A421FD2114608
S214402B60043203339B1A23F003030433194A1344F5
S214402B7052F8040B41F8040B9A42F9D10FE0144B7B
S214402B80144A9A420BD2144B114A9A1A1348811887
S214402B902AB151F8042943F8042D8142F9D100BFE7
S214402BA00F4B104A9A420BD2131D0F4AD21A22F0EC
S214402BB003021A44043B002143F8041B9342FBD112
S214402BC00A4B0B4A9A600B4B98470B4B9847FEE7CD
S214402BD000000020C82F4000D0040020C42F400032
S214402BE020070020D00400202307002000ED00E04E
S214402BF0000040005D2E4000F92D40003D4B1B6B11
S214402C0003F00303032B5DD8DFE803F0020E2B2B03
S214402C10394B5B6913F0800F14BF4FF400424FF4FA
S214402C20FA42364B1A604DE0324B1B6A13F0807FF7
S214402C3003D0334A314B1A6044E0324A2F4B1A6075
S214402C402C4B1B6A03F07003102B02D0202B04D0B1
S214402C5038E02D4A294B1A6034E0294A274B1A603F
S214402C6030E0244B1B6A13F0807F03D0244A234B6A
S214402C701A6012E0234A214B1A601E4B1B6A03F06F
S214402C807003102B02D0202B04D006E01E4A1B4BAC
S214402C901A6002E01A4A194B1A60164B1B6B03F077
S214402CA00303022B134A07BF936A926AD36AD26A17
S214402CB01248C3F30A41036801FB0333D2B2B3FBA5
S214402CC0F2F303600B4B1B6B03F07003702B07D1C2
S214402CD00A4A13680D49A1FB03135B08136070474B
S214402CE0044B1A6B0549C2F302120B68D3400B60C3
S214402CF0704700BF00040E4010140E40A400002091
S214402D00001BB70000093D0000127A00ABAAAAAA31
S214402D101A4B984207D84FF08063194A136002F561
S214402D20007213607047174B984206D8164B144AE9
S214402D30136002F5007213607047144B984206D831
S214402D40134B0F4A136002F5007213607047114B25
S214402D50984206D8104B0A4A136002F50072136078
S214402D6070470E4B984294BF4FF004230C4B044AD6
S214402D70136002F500721360704700BFFF2C3101EC
S214402D80000A0E40FF59620200010004FF869303CA
S214402D9000020004FFB3C40400030004FFE0F5058E
S214402DA00005000408B5024B9847024B984708BDFB
S214402DB049094000F92240000120014B1870704735
S214402DC0F90600200022014B1A707047F9060020D1
S214402DD008B5034B1B780BB1024B984708BD00BFA4
S214402DE0F9060020B1074000A0F14103DBB2192BE1
S214402DF09CBF2030C0B2704708B50F4B98470F4B6A
S214402E00984701220E4B1A70BFF35F8F62B60D4B88
S214402E1098470D4E0D4D0E4CF36B13F0040F4FF4C8
S214402E2000030CBF6B632B63A047C0B2094B9847A7
S214402E30094B9847F0E700BF810E40001D0E40004A
S214402E40A0000020A52D4000000E0E4000120E40AF
S214402E508D064000E92D4000D12D400070B50F4E44
S214402E600F4D761BB61018BF002405D0013455F818
S214402E70043B9847A642F9D10A4E0B4D761B00F00C
S214402E8091F8B61018BF002406D0013455F8043B1C
S214402E909847A642F9D170BD70BD00BFB02F400024
S214402EA0B02F4000B82F4000B02F4000024B13B167
S214402EB0024800F005B8704700000000CD2E4000E4
S214402EC0014600200246034600F016B838B5084BC7
S214402ED0084DED1AAC1018BFED1805D0013C55F85A
S214402EE0043D9847002CF9D1BDE8384000F064B85E
S214402EF0C42F4000C82F40002DE9F047254C2568D8
S214402F00D5F848410646884692469946CCB360680E
S214402F101F2818DC431C7EB104EB80050121C5F850
S214402F2088A0D4F8887101FA00F21743022EC4F83C
S214402F308871C5F808911ED00230636044F820803E
S214402F400020BDE8F087144B03B34FF4C870AFF3CE
S214402F5000800446D0B1D5F84831002780E8880084
S214402F60C5F8484138460123C4F88871C4F88C71C6
S214402F70002EE1D0D0E7D4F88C110A43C4F88C2157
S214402F80DAE705F5A674C5F84841C0E74FF0FF30CC
S214402F90BDE8F087A02F400000000000430000007E
S214402FA0A8000020F8B500BFF8BC08BC9E46704795
S214402FB0AD2E4000F1004000F8B500BFF8BC08BC9C
S20C402FC09E467047CD0040001C
S214402FC8ED044000B1034000390140003D01400097
S214402FD8A1034000C90140002901400041014000CA
S214402FE83D01400000000000440000203C00002056
S214402FF800000000140000200000002058000020B8
S214403008340000201201000202000040EB030424B2
S214403018000100000001000009024300020100C050
S21440302832090400000102020100052400100104D0
S214403038240202052406000105240103010705832E
S2144030480340001009040100020A00000007058139
S214403058024000000705020240000000040309047D
S2144030680100000000093D00000000009403002015
S214403078FC0300206404002000000000000000005C
S21440308800000000000000000000000000000000F3
S2144030980000000000000000000000009C2F4000D8
S2144030A800000000000000000000000000000000D3
S2144030B800000000000000000000000000000000C3
S2144030C800000000000000000000000000000000B3
S2144030D800000000000000000000000000000000A3
S2144030E80000000000000000000000000000000093
S2144030F80000000000000000000000000000000083
S2144031080000000000000000000000000000000072
S21440311801000000000000000E33CDAB34126DE60F
S214403128ECDE05000B000000000000000000000078
S2144031380000000000000000000000000000000042
S2144031480000000000000000000000000000000032
S2144031580000000000000000000000000000000022
S2144031680000000000000000000000000000000012
S804402B4D43
