S019000048656C6C6F5F415453414D34535F4153462E7372656382
S214400000C0340020D9024000D5024000D50240004E
S214400010D5024000D5024000D50240000000000056
S214400020000000000000000000000000D502400074
S214400030D502400000000000D5024000D502400036
S214400040D5024000D5024000D5024000D50240000F
S214400050D5024000D5024000D5024000D5024000FF
S214400060D5024000D5024000000000003D0240009E
S2144000705102400065024000D5024000D5024000D3
S2144000800000000000000000D5024000D5024000FD
S214400090D5024000D5024000D5024000D5024000BF
S2144000A0D5024000D5024000D5024000D5024000AF
S2144000B0D5024000D5024000D5024000D50240009F
S2144000C0D5024000D5024000D502400010B5054C90
S2144000D0237833B9044B13B10448AFF300800123AF
S2144000E0237010BD28040020000000001C054000BE
S2144000F0084B10B51BB108480849AFF300800848C4
S214400100036803B910BD074B002BFBD0BDE8104079
S214400110184700BF000000001C0540002C040020CB
S2144001201C0540000000000010B52348234B9847AC
S2144001300B20234CA0470C20A0470D20A047214968
S2144001404FF400030B630B61C1F8A0301E4B042232
S2144001505A61C3F8A0205A66C3F890205A655A627E
S214400160C3F88020186F20F004001867586F20F0FE
S214400170040058674FF4801008630861C1F8A00077
S2144001804FF4803018631861C3F8A0004FF4800025
S21440019008630861C1F8A0005A66C3F890205A6503
S2144001A05A62C3F880201A6F22F004021A675A6F08
S2144001B022F004025A6710BD50140E40CD02400093
S2144001C07902400000120E40000E0E40C06C704790
S2144001D0806C70472DE9F84381468846124B984715
S2144001E005464846114B9847054013D0104C04F13D
S2144001F060062368434508D16168294205D0E36814
S21440020040469847636825EA0305B44202D0103456
S214400210002DEED1074B1B6823B1074B1B680BB173
S21440022048469847BDE8F883CD014000D1014000DC
S21440023048040020B80400204404002008B50248C2
S2144002400B21024B984708BD000E0E40D5014000DA
S21440025008B502480C21024B984708BD00100E40D6
S214400260D501400008B502480D21024B984708BD0D
S21440027000120E40D501400022281ED81F280CD858
S214400280114B9A69012383401A40934217D00123A9
S21440029083400D4A1361002070470B4BD3F808216A
S2144002A02038012383401A4093420AD001238340DA
S2144002B0054AC2F8003100207047012070470020F0
S2144002C070470020704700BF00040E404FF40043C4
S2144002D043607047FEE700BF08B5204B204A9A426D
S2144002E013D9204B1D4A9A421FD21146043203337B
S2144002F09B1A23F003030433194A134452F8040BA1
S21440030041F8040B9A42F9D10FE0144B144A9A4232
S2144003100BD2144B114A9A1A134881182AB151F835
S214400320042943F8042D8142F9D100BF0F4B104AEF
S2144003309A420BD2131D0F4AD21A22F003021A44D5
S214400340043B002143F8041B9342FBD10A4B0B4A63
S2144003509A600B4B98470B4B9847FEE700000020EF
S2144003601C0540002804002018054000BC0400205E
S21440037028040020BF04002000ED00E000004000FC
S214400380B10340008903400008B5064B984706482D
S21440039006494FF40002C36B13F0040F0CBF4A63C8
S2144003A00A63F8E729014000000E0E4000120E4096
S2144003B070B50F4E0F4D761BB61018BF002405D0F3
S2144003C0013455F8043B9847A642F9D10A4E0B4DE6
S2144003D0761B00F091F8B61018BF002406D0013402
S2144003E055F8043B9847A642F9D170BD70BD00BF92
S2144003F004054000040540000C054000040540008C
S214400400024B13B1024800F005B8704700000000E8
S21440041021044000014600200246034600F016B87C
S21440042038B5084B084DED1AAC1018BFED1805D07E
S214400430013C55F8043D9847002CF9D1BDE83840BA
S21440044000F064B8180540001C0540002DE9F04750
S214400450254C2568D5F84841064688469246994632
S214400460CCB360681F2818DC431C7EB104EB8005C3
S2144004700121C5F888A0D4F8887101FA00F2174324
S214400480022EC4F88871C5F808911ED00230636009
S21440049044F820800020BDE8F087144B03B34FF4A7
S2144004A0C870AFF300800446D0B1D5F84831002775
S2144004B080E88800C5F8484138460123C4F888716A
S2144004C0C4F88C71002EE1D0D0E7D4F88C110A43E2
S2144004D0C4F88C21DAE705F5A674C5F84841C0E7AC
S2144004E04FF0FF30BDE8F087F40440000000000005
S2144004F04300000000000020F8B500BFF8BC08BC70
S2144005009E46704701044000F1004000F8B500BF29
S210400510F8BC08BC9E467047CD0040007A
S21440051C00000000EC02002054030020BC03002026
S21440052C000000000000000000000000000000007A
S21440053C000000000000000000000000000000006A
S21440054C00000000F0044000000000000000000026
S21440055C000000000000000000000000000000004A
S21440056C000000000000000000000000000000003A
S21440057C000000000000000000000000000000002A
S21440058C000000000000000000000000000000001A
S21440059C000000000000000000000000000000000A
S2144005AC00000000000000000000000000000000FA
S2144005BC00000000000000000100000000000000E9
S2144005CC0E33CDAB34126DE6ECDE05000B000000AE
S2144005DC00000000000000000000000000000000CA
S2144005EC00000000000000000000000000000000BA
S2144005FC00000000000000000000000000000000AA
S21440060C0000000000000000000000000000000099
S8044002D9E0
