S0150000506F7765725F426F6172645F642E73726563F8
S11300000C9434000C943E000C943E000C943E007E
S11300100C943E000C943E000C943E000C943E0064
S11300200C943E000C943E000C943E000C943E0054
S11300300C943E000C943E000C943E000C943E0044
S11300400C943E000C943E000C943E000C943E0034
S11300500C943E000C943E000C943E000C943E0024
S11300600C943E000C943E0011241FBECFEFD8E048
S1130070DEBFCDBF0E944E000C9459000C940000CA
S113008088E284B980E58CBD8CB581608CBD08950F
S11300908EBD0DB407FEFDCF8EB508950E944000BD
S11300A0D0E0CD2F8C2F0E944800CF5FC93CD1F700
S10900B0F8CFF894FFCF25
S9030000FC
